:04000000FEEF3FF0E0
:101000000000CBEC0AF0CF6ACE6A100ECD6ECD9008
:10101000EDEC0AF08B988B9A000E1F6E000E1E6E80
:10102000206A5FEF08F0C1EC0AF00009D8B41BEFAA
:1010300008F01DEF08F04FEF08F091EC0AF0206E79
:101040000D0EB6EC0AF00A0EB6EC0AF0520EB6EC33
:101050000AF0650EB6EC0AF0630EB6EC0AF0650E07
:10106000B6EC0AF0690EB6EC0AF0760EB6EC0AF0B1
:10107000650EB6EC0AF0640EB6EC0AF03A0EB6EC69
:101080000AF0200EB6EC0AF02050B6EC0AF00D0E75
:10109000B6EC0AF00A0EB6EC0AF06AEF08F0030E9E
:1010A0001D6E080E1C6E770EE82EFED71C2EFCD788
:1010B0001D2EFAD70000640E1E26000E1F22E80E19
:1010C0001E5C030E1F58D8A068EF08F06AEF08F006
:1010D00013EF08F0520E2018D8B471EF08F073EF38
:1010E00008F07CEF08F0720E2018D8A47AEF08F010
:1010F0007CEF08F0A4EF08F08B8A290E1D6E960E87
:101100001C6E7F0EE82EFED71C2EFCD71D2EFAD7A4
:10111000000023EC0AF00009D8A491EF08F093EF47
:1011200008F09FEF08F08B9A8B88F0EC0AF0270EFE
:10113000176E100E166E7AEC09F0A1EF08F0EDECC8
:101140000AF08B9AE0EF08F04C0E2018D8B4ABEF01
:1011500008F0ADEF08F0B6EF08F06C0E2018D8A438
:10116000B4EF08F0B6EF08F0DEEF08F08B8A290E36
:101170001D6E960E1C6E7F0EE82EFED71C2EFCD721
:101180001D2EFAD7000023EC0AF00009D8A4CBEFFB
:1011900008F0CDEF08F0D9EF08F08B9A8B88F3ECCC
:1011A0000AF0270E176E100E166E7AEC09F0DBEFC0
:1011B00008F0EDEC0AF08B9AE0EF08F0EDEC0AF0A5
:1011C0008B988B9A0CEF08F0FEEF3FF00E6E000E3E
:1011D000106E000E0F6E0E5050EC0AF008C00AF0B0
:1011E000010E0B6E0A2AF7EF08F0D8900B360A2E84
:1011F000F5EF08F00B5082140009D8A402EF09F0B3
:1012000004EF09F015EF09F00F500A6E10500B6E45
:101210000F4A102A600E0A5CEA0E0B58D8A013EF92
:1012200009F015EF09F0EEEF08F008C00AF0010E22
:101230000B6E0A2A1EEF09F0D8900B360A2E1CEF0F
:1012400009F00B5082140009D8A429EF09F02BEF04
:1012500009F031EF09F0030E096EE70E086E79EF21
:1012600009F0CF6ACE6ACD80000E106E000E0F6EB0
:1012700008C00AF0010E0B6E0A2A41EF09F0D8905F
:101280000B360A2E3FEF09F00B5082140009D8B438
:101290004CEF09F04EEF09F05FEF09F00F500A6EC6
:1012A00010500B6E0F4A102A600E0A5CEA0E0B58A3
:1012B000D8A05DEF09F05FEF09F038EF09F0CD90AD
:1012C000CE50CFCF0AF00B6A0AC00BF00A6A0A10A0
:1012D0000C6E0B500D6E0CC001F00DC002F0000E34
:1012E000046E910E036EE9EC09F001C008F002C033
:1012F00009F01200000E1B6E000E1A6EDDEF09F0F1
:1013000023EC0AF00009D8B488EF09F08AEF09F05D
:10131000CDEF09F00D0EB6EC0AF00A0EB6EC0AF0AD
:101320004F0EB6EC0AF0620EB6EC0AF0730EB6EC95
:101330000AF0740EB6EC0AF0610EB6EC0AF0630E19
:10134000B6EC0AF06C0EB6EC0AF0650EB6EC0AF0DC
:10135000200EB6EC0AF0640EB6EC0AF0650EB6ECA0
:101360000AF0740EB6EC0AF0650EB6EC0AF0630EE5
:10137000B6EC0AF0740EB6EC0AF0650EB6EC0AF0A4
:10138000640EB6EC0AF00D0EB6EC0AF00A0EB6ECDE
:101390000AF0EDEC0AF0E8EF09F0020E196E040E07
:1013A000186EBA0EE82EFED7182EFCD7192EFAD7D3
:1013B00000D0320E1A26000E1B2216501A5C17504F
:1013C0001B58D8A0E6EF09F0E8EF09F080EF09F02C
:1013D0001200000E066E000E056E03500410D8B405
:1013E000F4EF09F0F6EF09F01EEF0AF0010E076EB8
:1013F000FEEF09F0D89003360436072A04AE03EF57
:101400000AF005EF0AF0FAEF09F0D8900536063633
:101410000350015C04500258D8A011EF0AF013EFFA
:101420000AF018EF0AF00350015E0450025A0580DA
:10143000D89004320332072E05EF0AF005C001F000
:1014400006C002F01200010E086E000EE6EC08F075
:1014500008C011F009C012F0030E086E020EE6EC8F
:1014600008F008C013F009C014F0010E156E1250F8
:1014700009E1140E115CD8A040EF0AF042EF0AF027
:101480004EEF0AF0145009E1140E135CD8A04BEF94
:101490000AF04DEF0AF04EEF0AF0156A15501200EF
:1014A000036E03C001F0010E026E012A5AEF0AF02A
:1014B000D8900236012E58EF0AF002508B120D0E12
:1014C000E82EFED7000003C001F0010E026E012AD3
:1014D0006CEF0AF0D8900236012E6AEF0AF0025043
:1014E000FF0A8B161200080EA76E900EAB6E240E2C
:1014F000AC6EA00EAF6E010E7D6E000E016E000E82
:10150000026EE3EC0AF0000E016E000E026EDEECDD
:101510000AF0000E016E000E026EE8EC0AF0276A77
:1015200012009EAA96EF0AF098EF0AF091EF0AF0E7
:10153000276AABA29EEF0AF0A0EF0AF0A2EF0AF032
:10154000AB98AB88AE5012008D6A8C6A896A8A6A41
:101550008B6A966A926A936A8A0E946E956A0F01F4
:101560005D697F0E5C6F5B6BF18E1200016E9EA851
:10157000BCEF0AF0BEEF0AF0B7EF0AF001C0ADFF12
:1015800012009EBAC6EF0AF0C9EF0AF0010ECAEFC8
:101590000AF0000E1200A4EC0AF0D8EC0AF073EC8A
:1015A0000AF01200276A000EF86E000101EF08F041
:1015B000720ED36ED26A9B6A9A6A120001C023F03F
:1015C00002C024F0120001C025F002C026F0120073
:1015D00001C021F002C022F012008C6A8B98120028
:0C15E000550E8C6E1200AA0E8C6E1200CC
:047FFC00D2EF0AF0C6
:020000040030CA
:0E00000015087F50FF8991FF0FC00FE00F40E1
:00000001FF
